:100000000C9443030C9474030C9474030C947403C5
:100010000C9474030C9474030C9474030C94740384
:100020000C9474030C9474030C9474030C94740374
:100030000C940A170C9474030C9474030C947403BA
:100040000C9474030C9474030C9474030C94740354
:100050000C9474030C9474030C9474030C94110C9E
:100060000C9474030C94DB0B0C94B10B0C94740380
:100070000C9474030C9474030C9474030C94740324
:100080000C9474030C9474030C9474030C94740314
:100090000C9474030C9474030C9474030C94740304
:1000A0000C9474030C9474030C9474030C947403F4
:1000B0000C9474030C9474030C9474030C947403E4
:1000C0000C9474030C9474030C9474030C947403D4
:1000D0000C9474030C9474030C9474030C947403C4
:1000E0000C9474030C940D170C94AB060C94CD0473
:1000F0000C94B9060C94A5060C9480040C949702F9
:100100000C94D1060C94D7050C94C3060C944804A7
:100110000C9412030C9417040C9468060C94960625
:100120000C94EB050C9430010C94A6020C949E06E2
:100130000C9426040C94D5060C94BD060C943A0439
:100140000C9400080C94B5060C9463060C94AF064E
:100150000C9474020C94E1050C94CB060C944708A3
:100160000C949A060C94C7060C94A2060C94AC024C
:100170000C94EA0300002200250028002B002E002A
:100180003100340002010000050108010B010505E2
:100190000505070508080808020202020A0A0808FD
:1001A000040404040101010101010101030303032B
:1001B00003030303040707070C0C0C0C0C0C0C0CBA
:1001C0000202020206060606060606060B0B0B0BCB
:1001D0000B0B0B0B010210202008081020401020F0
:1001E00040800201020108040201010204081020FB
:1001F00040808040201008040201800402018040F9
:100200002010080402010804020101020408102061
:100210004080010204081020408000000A0B0209FF
:100220000C0D0E0807030401000000000000000090
:1002300000000000000000000000000000000000BE
:10024000000000000000121110000000000000007B
:10025000000000000000000000000000000000009E
:10026000CF93DF9300D000D000D01F92CDB7DEB780
:10027000E091B002F091B1021081F12CE12C112338
:1002800029F00580F681E02DE080F1800E94550D77
:100290000E944B0D6C018091AC029091AD02C8168A
:1002A000D90608F07DC00E947914D092AD02C092A8
:1002B000AC020E9453110091DE021091DF021A86F7
:1002C000198680E06801B1E1CB0ED11C0FB6F8941D
:1002D0000F92F801F28CFF2009F443C1448D4423AE
:1002E000C1F050E086819781840F951F97838683A4
:1002F000248135818217930720F080819181978333
:100300008683D80116966D917C91CE0101960E944C
:100310003019FA94F801F28E8085882339F0C801EB
:1003200008960E94A60C81110E948D100F900FBE9E
:10033000D980D7FCC0CF0C811D81F80182859385BF
:10034000892B21F0C80102960E94A80D0E944B0D36
:100350007C018091AC029091AD02E816F90610F490
:100360000E947914F092AD02E092AC02F9E0FD1522
:1003700008F4A1CFED2DDD0CFF0BD80152969C9116
:100380008827EA53FE4F8F4F0C9428197402740289
:100390007402AC029702A60274027402AC029702C5
:1003A000D092AD02C092AC02112399F1CE14DF04B9
:1003B000B8F10E945311E091B002F091B1020580B2
:1003C000F681E02D06811781C80102960E94A80DD2
:1003D000D80152968C91529782FF17C01C966D914E
:1003E0007C916E0D7F1D9701A601C8010E94020E2F
:1003F000882321F0B701C8010E945214D8015096F9
:10040000ED91FC91C801199556CF8E7FF801828B32
:10041000F5CFE091AE02F091AF02808161E08111F1
:1004200060E00091DE021091DF020FB6F8940F92A7
:10043000F801858D8F3F09F4158ED8015E968C9159
:100440005E978F3F11F45E961C920F900FBEF801DD
:10045000828D81113FC00288F389E02DA0916C024A
:10046000B0916D021F96FC93EE931E97A0916C02C3
:10047000B0916D028481958151969C938E93509793
:1004800080916C0290916D02A481B5810C961396B7
:100490009C938E93129780916C0290916D020C96B2
:1004A00095838483E0916C02F0916D02C8014196BE
:1004B000958B848BD80151968C9151978F5F519673
:1004C0008C93C7018C199D09662311F08FEF9FEF64
:1004D0000E942C0EC8010E94660D0E9453118111CA
:1004E000EACE0E948D10E7CE9160F801928BCA800F
:1004F000DB80648575856C0D7D1D9601A701C801A3
:100500000E94020E882309F4D6CED8015096ED91B0
:10051000FC91C8011995F801828982FFCCCE6485CF
:1005200075856C0D7D1DC8010E945214C4CE91606A
:10053000F801928B6A817B81758764876E0D7F1DC0
:100540009701A701C8010E94020EB5CE91FD04C01B
:10055000C8010E94C614AFCE9E7FD80152969C93CC
:10056000AACE29853A85232B19F40F900FBE80CE91
:10057000811109C08091E2028E838091E002909106
:10058000E10298878F830F900FBE0E94550D0FB622
:10059000F8940F92D8015D968C915D978F3F11F47E
:1005A0005D961C92F801868D8F3F09F4168E0F9090
:1005B0000FBEBE01675F7F4FCE0106960E94730C8F
:1005C000811125C0C8010E945B0D8823D1F0E98408
:1005D000FA8460916C0270916D02645F7F4FC60176
:1005E0000E94CC0D61E0C7010E942C0EC8010E9440
:1005F000660D0E945311811102C00E948D1081E08E
:1006000065CEC8010E94660D0E945311F8CFC80143
:100610000E94660D0E945311C8010E945B0D882341
:1006200071F326CE8091B40281110BC08091E30258
:10063000823010F00E948D100E94E6060E94ED04A8
:10064000F1CF0FB6F8940F92E091BA02F091BB028D
:10065000C681D781CE0102960E94A80D8091C0026A
:1006600081508093C0028091B40281508093B40283
:100670000F900FBE8F89988D0E94C614CE010E94E4
:10068000C614D0CF0D1711241FBECFEFD1E2DEBFAD
:10069000CDBF00E00CBF12E0A0E0B2E0E4E8F2E37E
:1006A00000E00BBF02C007900D92AC36B107D9F73E
:1006B00024E0ACE6B2E001C01D92A039B207E1F738
:1006C00013E0C3E4D3E000E006C021970109802FC6
:1006D000FE010E942819C234D10780E00807A9F75B
:1006E0000E944C170C9440190C940000E9EAF3E0C6
:1006F000A089B18982E08C93A485B5851C92A685DA
:10070000B7858FEC8C93108EA489B58986E08C9385
:10071000A289B3898C9180618C93A289B3898C91D1
:1007200088608C93A289B3898C9180688C930288AD
:10073000F389E02D80818F7D80830895AF92BF92F1
:10074000CF92DF92EF92FF920F931F930FB6F89420
:100750000F92A9E0B3E0E0E05A963C915A97332318
:1007600029F0EF5F9096E530B9F7EFEF30E2E30262
:10077000F0011124E75FFC4F9183808373836283D0
:1007800080EC848356834583278311870087F38613
:10079000E286D18AC08A86E090E0958B848BB5860C
:1007A000A48681E0808F178A168A828F118E138E1D
:1007B000168E178E809108038F5F809308030F9029
:1007C0000FBE1F910F91FF90EF90DF90CF90BF90E1
:1007D000AF900895AF92BF92CF92DF92EF92FF92C7
:1007E0000F931F93CF93DF936C017B018B01040F59
:1007F000151FEB015E01AE18BF08C017D10759F0F5
:100800006991D601ED91FC910190F081E02DC60136
:100810001995892B79F7C501DF91CF911F910F9120
:10082000FF90EF90DF90CF90BF90AF900895FC01C4
:10083000538D448D252F30E0842F90E0821B930B45
:10084000541710F0CF96089501970895FC01918DEB
:10085000828D981761F0A28DAE0FBF2FB11D5D96EE
:100860008C91928D9F5F9F73928F90E008958FEF90
:100870009FEF0895FC01918D828D981731F0828D44
:10088000E80FF11D858D90E008958FEF9FEF08959B
:10089000FC01918D228D892F90E0805C9F4F821BFF
:1008A00091098F739927089589EA93E00E9448047B
:1008B00021E0892B09F420E0822F0895FC01A48D0A
:1008C000A80FB92FB11DA35ABF4F2C91848D90E072
:1008D00001968F739927848FA689B7892C93A08955
:1008E000B1898C91837080648C93938D848D9813DF
:1008F00006C00288F389E02D80818F7D8083089572
:10090000EF92FF920F931F93CF93DF93EC0181E05F
:10091000888F9B8D8C8D98131AC0E889F989808106
:1009200085FF15C09FB7F894EE89FF896083E88939
:10093000F98980818370806480839FBF81E090E02B
:10094000DF91CF911F910F91FF90EF900895F62EB8
:100950000B8D10E00F5F1F4F0F731127E02E8C8D52
:100960008E110CC00FB607FCFACFE889F989808197
:1009700085FFF5CFCE010E945E04F1CFEB8DEC0F29
:10098000FD2FF11DE35AFF4FF0829FB7F8940B8FB4
:10099000EA89FB8980818062CFCFCF93DF93EC011E
:1009A000888D8823B9F0AA89BB89E889F9898C9157
:1009B00085FD03C0808186FD0DC00FB607FCF7CF13
:1009C0008C9185FFF2CF808185FFEDCFCE010E9413
:1009D0005E04E9CFDF91CF91089580E090E0892B0C
:1009E00029F00E94540481110E94000080E090E0F0
:1009F000892B49F080E090E0892B29F00E940000CB
:100A000081110E94000080E090E0892B49F080E095
:100A100090E0892B29F00E94000081110E940000C3
:100A200080E090E0892B49F080E090E0892B29F06C
:100A30000E94000081110C94000008953FB7F894C3
:100A40008091D8029091D902A091DA02B091DB0294
:100A500026B5A89B05C02F3F19F00196A11DB11D19
:100A60003FBFBA2FA92F982F8827BC01CD01620F55
:100A7000711D811D911D42E0660F771F881F991F10
:100A80004A95D1F708958F929F92AF92BF92CF92DD
:100A9000DF92EF92FF924B015C010E941E056B01F9
:100AA0007C010E941E056C197D098E099F09683E14
:100AB000734081059105A8F321E0821A9108A108ED
:100AC000B10888EEC80E83E0D81EE11CF11C811429
:100AD0009104A104B10429F7FF90EF90DF90CF902B
:100AE000BF90AF909F908F9008952FB7F89460912A
:100AF000D4027091D5028091D6029091D7022FBF77
:100B00000895279A2F9A0895FC0101900020E9F793
:100B10003197AF01481B590BBC0189EA93E00C9453
:100B2000EA038F929F92AF92BF920F931F93CF933E
:100B3000DF93CDB7DEB7A1970FB6F894DEBF0FBE37
:100B4000CDBF19A2423008F44AE08E010F5D1F4F5D
:100B5000842E912CB12CA12CA50194010E94061980
:100B6000E62FB901CA01EA30F4F4E05DD801EE9352
:100B70008D01232B242B252B79F790E080E0109713
:100B800019F0CD010E948405A1960FB6F894DEBF3E
:100B90000FBECDBFDF91CF911F910F91BF90AF904E
:100BA0009F908F900895E95CE1CF0C94840561E0FB
:100BB00070E080E090E00E94430589E192E00C94AF
:100BC000D50561E070E080E090E00E9443058CE193
:100BD00092E00C94D50561E070E080E090E00E9426
:100BE00043058FE192E00C94D505CF93DF930E94EB
:100BF0008405EC0182E292E00E9484058C0F9D1F27
:100C0000DF91CF910895EF92FF920F931F93CF93AF
:100C1000DF9300D01F92CDB7DEB789EA93E00E9440
:100C2000260489EA93E00E9426048E010F5F1F4F7D
:100C300078018A3341F0F80181938F0189EA93E0CA
:100C40000E942604F6CFC7010E94E0188C0189EAB1
:100C500093E00E942604282F2053330BA901223051
:100C6000310508F046C098013327F901E65EFD4FD3
:100C70009491F901EC52FE4F649122573E4FF901D5
:100C80002491222309F435C0992311F19150923116
:100C9000F8F4E92FF0E08827EF5AF94F8F4F0C94C2
:100CA00028199E06A206630696069A066806A506F9
:100CB000AB06AF06B506B906BD06C306C70668068D
:100CC000CB06D106D506809180008F778093800077
:100CD000E22FF0E0EE0FFF1FEC58FE4FA591B4910C
:100CE0008FB7F894EC91411164C060956E236C93BA
:100CF0008FBF89EA93E00E9426048A3011F08D307C
:100D0000C1F789EA93E00E943A048A3009F053C09F
:100D100089EA93E00F900F900F900F90DF91CF91A1
:100D20001F910F91FF90EF900C942604809180000A
:100D30008F7DCCCF80918000877FC8CF84B58F779F
:100D400084BDC6CF84B58F7DFBCF8091B0008F77F7
:100D50008093B000BDCF8091B0008F7DF9CF80919E
:100D600090008F7780939000B3CF809190008F7D1B
:100D7000F9CF80919000877FF5CF8091A0008F7789
:100D80008093A000A5CF8091A0008F7DF9CF8091A6
:100D9000A000877FF5CF809120018F77809320017D
:100DA00097CF809120018F7DF9CF80912001877F9F
:100DB000F5CF6E2B9CCF0F900F900F900F90DF917F
:100DC000CF911F910F91FF90EF9008958F929F9276
:100DD000AF92BF92CF92DF92EF92FF920E94750581
:100DE000672B682B692B09F4F1C00E947505C09030
:100DF0007802D0907902E0907A02F0907B026C1534
:100E00007D058E059F0508F4F2C0C0907802D09051
:100E10007902E0907A02F0907B029B01AC012C19E0
:100E20003D094E095F0969017A0138EEC31633E0C6
:100E3000D306E104F10408F4D1C060937802709302
:100E4000790280937A0290937B0284EF91E0A0E094
:100E5000B0E08093540490935504A0935604B0934B
:100E60005704109258041092590410925A04109288
:100E70005B0480914C0490914D04A0914E04B0917C
:100E80004F048093500490935104A0935204B09364
:100E900053040E94750560934C0470934D04809335
:100EA0004E0490934F0489EA93E00E943A048436FA
:100EB00011F40E9403060E94750560934804709324
:100EC000490480934A0490934B040E9475056B017A
:100ED0007C0185E292E00E94D5054AE061E070E085
:100EE00080E090E00E9491058CE292E00E94D5059E
:100EF0004AE0C701B6010E9491058EE292E00E948D
:100F0000D50580914C0490914D04A0914E04B09170
:100F10004F04A7019601281B390B4A0B5B0BCA0132
:100F2000B9014AE00E9491058EE292E00E94D50547
:100F300060914C0470914D0480914E0490914F0447
:100F4000C0905004D0905104E0905204F0905304AB
:100F50006C197D098E099F094AE00E94910580E382
:100F600092E00E94D5050E9475054AE00E94910515
:100F700082E392E00E94F5050E9475056B017C01F9
:100F80004B015C0135E0830E911CA11CB11C0E9439
:100F900075056C157D058E059F0528F0861697064C
:100FA000A806B906A0F789EA93E00E943A048436BD
:100FB00011F40E9403060E94750560934C0470931F
:100FC0004D0480934E0490934F0408C00E94750511
:100FD000623071058105910508F007CFFF90EF9011
:100FE000DF90CF90BF90AF909F908F9008956093C7
:100FF00078027093790280937A0290937B0205CFF6
:101000007C0180916C0290916D02D0E0C0E081E0A3
:101010008B8F8A859B85892B41F48091B2029091B8
:10102000B3029093130080931200D0E0C0E0E881F7
:10103000F981C70119951F8A1E8A088919890E949A
:10104000550D2091E0023091E1024A895B89C80187
:10105000840F951F90931300809312002417350777
:1010600050F48417950750F00E9453118111DDCF81
:101070000E948D10DACF8417950718F028173907CA
:1010800098F760E0821B930B0E942C0EEDCF89E055
:10109000982E9AEC692E92E0792E5524539425EBE4
:1010A000A22E22E0B22E882483940E944B0D6C0164
:1010B000C9E0D3E08A8D882309F472C18A899B89AB
:1010C0009601281B390B121613060CF4188E288D66
:1010D00021118BC02B8D213009F087C02C853D85D7
:1010E000820F931F9F878E878C199D0997FF7DC064
:1010F000E885F985008111810FB6F8940F920115EA
:10110000110521F400916C0210916D02780122E02A
:10111000E20EF11CC7010E94A80DD80154968D91D2
:101120009C91892B21F0C8010C960E94A80D8091FA
:10113000BE028F5F8093BE0280916C0290916D021F
:101140000817190709F06EC1E091B602F091B702D5
:10115000D8011596FC93EE93149784819581179688
:101160009C938E931697A481B5811396FC92EE9270
:101170001297F582E482F801B386A2868091B502C7
:101180008F5F8093B5028091B4028F5F8093B40229
:101190000F900FBE8091DD02882349F080916C0290
:1011A00090916D020817190711F40E948D101F8A83
:1011B0001E8AE884F9842D813E814C8150E06A8149
:1011C0007B810F8180E098E00E94F514813019F452
:1011D0001B8E1E8E1F8E1B8A1A8A8C859D852A85E2
:1011E0003B85820F931F9F878E878F8D813009F0FB
:1011F0005DC01F8EE885F985008111810FB6F894D6
:101200000F920115110521F400916C0210916D02ED
:101210007801B2E0EB0EF11CC7010E94A80DF801A5
:1012200084899589892B21F0C8010C960E94A80D0C
:10123000E091CB02F091CC02D8011596FC93EE938D
:1012400014978481958117969C938E931697A48109
:10125000B5811396FC92EE921297F582E482F80122
:10126000738662868091CA028F5F8093CA0287A1CB
:10127000813009F417A20F900FBE8091DD02882300
:1012800039F00FB6F8940F920E945B0C0F900FBECE
:1012900080916C0290916D020817190739F48091C2
:1012A000DD02882309F4CFC00E948D108E8D81301D
:1012B00009F076C08C8D9D8D8C199D091816190624
:1012C0000CF46EC01E8EDB8ACA8AE885F98500811F
:1012D000118180916C0290916D020817190709F431
:1012E0005FC00115110509F45BC00FB6F8940F92A9
:1012F000D8011A968D919C918A5C924009F04EC05B
:10130000F80184899589F2E0813C9F0709F446C081
:10131000892B09F043C0780122E0E20EF11CC701DD
:101320000E94A80DD8015696EC91809107038E1764
:1013300010F4E09307039E9EF0011124ED51FD4F40
:101340000180F281E02DD8011596FC93EE9314975D
:101350008481958117969C938E931697A481B5816D
:101360001396FC92EE921297F582E482F801968928
:10137000999DF0011124ED51FD4FD8011B96FC936E
:10138000EE931A9780818F5F8083E0916C02F091D9
:101390006D028689981710F00E948D100F900FBE75
:1013A000A096B3E0C93ADB0709F084CE0FB6F894F3
:1013B0000F92E0916C02F0916D0283A194A1A5A11E
:1013C000B6A1892B8A2B8B2B61F4E0916C02F091F2
:1013D0006D0257A261E08FEF9FEF0E942C0E0E94DA
:1013E0008D100F900FBE0FB6F8940F92E0916C0223
:1013F000F0916D0283A194A1A5A1B6A1892B8A2B9E
:101400008B2B41F0E0916C02F0916D0213A214A2BB
:1014100015A216A2E0916C02F0916D0217A20F9036
:101420000FBE43CE8091C00281508093C002D8018C
:1014300057968D919C910E94C614C8010E94C614B3
:101440000E945B0CA5CE9091CA028091C0029813B5
:1014500005C010926D0210926C0228CF8091DC02C0
:10146000882319F08092BF0221CF1092BF02A09171
:101470006C02B0916D02E0916C02F0916D022D91C1
:101480003C918789908D82179307A8F080916C0218
:1014900090916D0280916C0290916D020E94810585
:1014A000FFEF27EA81E6F15020408040E1F700C0DD
:1014B00000001F9AF5CF80910703282F30E0929EFD
:1014C000F001939EF00D1124ED51FD4F9081992371
:1014D00041F1A181B28112960D90BC91A02DB283F1
:1014E000A183899DA00111244A515D4FA417B5071E
:1014F00029F412964D915C9152834183929EF001A2
:10150000939EF00D1124ED51FD4F0180F281E02DED
:101510002681378130936D0220936C0280930703FC
:10152000C5CE8150CACFCF93DF9300D0CDB7DEB701
:10153000109288041092890410928A0410928B04ED
:10154000109248041092490410924A0410924B04DD
:101550000E9475052B013C017C016B0188EBC80ED4
:101560008BE0D81EE11CF11C0E9475056415750501
:101570008605970528F0C616D706E806F906A0F7EF
:1015800068EE73E080E090E00E9443050E947603DD
:101590000E947505609348047093490480934A043F
:1015A00090934B0486E492E00E94D5050E94750555
:1015B0002B013C017C016B01EAE0CE0ED11CE11C49
:1015C000F11C0E947505641575058605970528F0C0
:1015D000C616D706E806F906A0F781E080935C04FA
:1015E0000E947505609348047093490480934A04EF
:1015F00090934B0487E592E00E94D5050E94760304
:1016000081E6898382E68A8383E68B838FE192E099
:101610000E94D50510922303109243031092630396
:10162000109283031092A3039FE1A92EB12C2CE00A
:10163000C22ED12CF12CE12C06E712E021E0AE0104
:101640004F5F5F4F69E172E087ED95E00E949E0376
:1016500036E0A32EB12C46E0C42ED12C53E0E52E6B
:10166000F12C04E712E022E0AE014E5F5F4F6CE127
:1016700072E081EE95E00E949E036CE0A62EB12CF4
:1016800072E1C72ED12CF12CE12C02E712E023E00D
:10169000AE014D5F5F4F6FE172E08BEE95E00E940F
:1016A0009E038EE592E00E94F5058EE592E00E9491
:1016B000F5055091080333E070E060E020E011E0B0
:1016C0002517ECF4E9E0F3E08FEF9FEF40E0A18D08
:1016D000A13039F0A089B1898A179B0710F04F011A
:1016E000CD014F5FB0964513F2CF6817790709F027
:1016F0003150F4013783118F2F5FBC01E1CF80E7B8
:10170000E82E82E0F82E03E030E020E048EC50E0E4
:1017100061E672E087E498E00E94F51410E08091A1
:1017200008031817ACF480E21802F0011124E75FF7
:10173000FC4FE084F18425813681448150E0628150
:101740007381078180E098E00E94F5141F5FE7CF66
:101750000E944B0D9093B3028093B2020E94301608
:10176000FFCF1F920F920FB60F9211240BB60F925C
:101770002F933F934F935F936F937F938F939F9399
:10178000AF93BF93EF93FF9389EA93E00E945E04C7
:10179000FF91EF91BF91AF919F918F917F916F9149
:1017A0005F914F913F912F910F900BBE0F900FBE05
:1017B0000F901F9018951F920F920FB60F92112441
:1017C0000BB60F922F938F939F93EF93FF93E0911C
:1017D000B903F091BA038081E091BF03F091C00397
:1017E00082FD1DC090818091C2038F5F8F73209115
:1017F000C303821741F0E091C203F0E0E755FC4FCC
:10180000958F8093C203FF91EF919F918F912F91BC
:101810000F900BBE0F900FBE0F901F9018958081F8
:10182000F2CF1F920F920FB60F9211242F933F9376
:101830008F939F93AF93BF938091D4029091D502E1
:10184000A091D602B091D7023091D30223E0230FAA
:101850002D3758F50196A11DB11D2093D302809319
:10186000D4029093D502A093D602B093D702809170
:10187000D8029091D902A091DA02B091DB020196D0
:10188000A11DB11D8093D8029093D902A093DA02D2
:10189000B093DB02BF91AF919F918F913F912F91B8
:1018A0000F900FBE0F901F90189526E8230F0296F9
:1018B000A11DB11DD2CFE091A802F091A9028081B3
:1018C000811107C08FEF9FEF9093A7028093A6022C
:1018D0000895E091A802F091A9020580F681E02D1B
:1018E00080819181F1CFFC01DB010FB6F8940F925A
:1018F0004091E0025091E1022D913C9111972F3FD0
:10190000320711F1818192816091E2027081761734
:1019100049F04817590730F01D921C9281E00F9052
:101920000FBE0895481B590B42175307A8F7241BF5
:10193000350B2D933C938091E20280838091E002ED
:101940009091E1029283818380E0E9CFCF93DF938E
:10195000DC011596ED91FC910680F781E02DA489BC
:10196000B5898685978520893189EC013D832C8353
:10197000C089D1899B838A83CF010C9611962D91C2
:101980003C9112972817390721F41296DC93CE93D5
:101990001197158A148A2C9121502C932091DC02E6
:1019A000211157C0A285B385848195812681378115
:1019B000EC013D832C83C681D7819B838A83CF0131
:1019C000029611962D913C9112972817390721F410
:1019D0001296DC93CE931197138612862C91215088
:1019E0002C93C689209107032C1710F4C09307038A
:1019F00029E02C9FE0011124CD51DD4F0980DA81CF
:101A0000C02DD583C4834C815D8157834683AC81CF
:101A1000BD8113969C938E9312979D838C83A68988
:101A2000A29FD0011124AD51BD4FB387A2878C91E5
:101A30008F5F8C93A0916C02B0916D02968956963F
:101A40008C91891730F581E08093BF02DF91CF91AF
:101A50000895A091C202B091C302B787A6871496D9
:101A60002D913C911597318B208B1496CD91DC9163
:101A700015979B838A8315969C938E93149781EC7C
:101A800092E0958B848B8091C1028F5F8093C1021D
:101A9000D1CF80E0DBCF0FB6F8940F928091E002B7
:101AA0009091E1020F900FBE08958091DC028F5F4C
:101AB0008093DC0208950FB6F8940F92FC01928D8A
:101AC0000F900FBE81E0911180E00895EF92FF9298
:101AD0000F931F93CF93DF93EC010FB6F8940F92FF
:101AE0001E8D7C0181E1E80EF11C01E01116D4F09D
:101AF0008FEF8E8F0F900FBE0FB6F8940F921D8D43
:101B00007E0188E0E80EF11C01E01116B4F08FEFC1
:101B10008D8F0F900FBEDF91CF911F910F91FF908E
:101B2000EF9008958989882319F3C7010E94A60CB4
:101B300081110093BF021150D9CF8885882339F3D2
:101B4000C7010E94A60C81110093BF021150DDCF86
:101B5000CF93DF93FC01A085B1858281938124819D
:101B60003581EC013D832C83C481D5819B838A839D
:101B700011968D919C9112978E179F0721F41296C2
:101B8000DC93CE931197118610868C9181508C93A3
:101B90008C91DF91CF9108950F931F93CF93DF9393
:101BA0008C01FB0180819181D80113968F3F9807AA
:101BB000F1F4E801AF81B88512968D919C9113974D
:101BC00093838283EC01FD83EC83B583A483139616
:101BD000FC93EE93129711870087F80180818F5F45
:101BE0008083DF91CF911F910F910895D9011296B3
:101BF0002D913C911397E9014881598184179507EC
:101C0000A8F7DACFFC017383628391878087461738
:101C1000570790F0421B530B848595854817590749
:101C2000C8F4BF016E5F7F4F8091AE029091AF020A
:101C30000E94CC0D80E008954217530718F46217F4
:101C4000730740F4BF016E5F7F4F8091B0029091A7
:101C5000B102EECF81E00895FF920F931F93CF93CF
:101C6000DF93EC01F62E0091E0021091E1028091E9
:101C70006C0290916D0202960E94A80DCF3FDC0786
:101C8000E9F5FF20D9F1E091CB02F091CC02A091CF
:101C90006C02B0916D021596FC93EE931497A0918F
:101CA0006C02B0916D028481958117969C938E93FE
:101CB000169780916C0290916D02A481B581029675
:101CC00013969C938E93129780916C0290916D0263
:101CD000029695838483E0916C02F0916D028AEC08
:101CE00092E0938782878091CA028F5F8093CA02B5
:101CF000DF91CF911F910F91FF900895C00FD11FD9
:101D0000E0916C02F0916D02D383C28360916C020A
:101D100070916D02C017D10768F48091AA0290916A
:101D2000AB026E5F7F4FDF91CF911F910F91FF90BC
:101D30000C94CC0D8091A8029091A9026E5F7F4F08
:101D40000E94CC0D8091A6029091A702C817D907D6
:101D500078F6D093A702C093A602CACFFC010396DF
:101D6000928381832FEF3FEF348323839683858390
:101D700090878783108208950F920FB6F8940F9280
:101D80000BB60F920CB60F921F9211242F923F9216
:101D90004F925F926F927F928F929F92AF92BF927B
:101DA000CF92DF92EF92FF920F931F932F933F9367
:101DB0004F935F936F937F938F939F93AF93BF9353
:101DC000CF93DF93EF93FF93A0916C02B0916D02DC
:101DD0000DB60D920EB60D9213BE8091DC028111EC
:101DE000F9C08091E0029091E10201969093E102A6
:101DF0008093E002009781F52091A8023091A9021A
:101E00004091AA025091AB025093A9024093A802BC
:101E10003093AB022093AA022091E2022F5F20931D
:101E2000E202E091A802F091A9022081211107C0ED
:101E30002FEF3FEF3093A7022093A6020DC0E09151
:101E4000A802F091A9020580F681E02D2081318160
:101E50003093A7022093A6022091A6023091A702F8
:101E60008217930710F420E0A1C020E039E0D32EC0
:101E7000E091A802F091A9023081311107C08FEFE3
:101E80009FEF9093A7028093A60290C0E091A802D2
:101E9000F091A9020580F681E02D0680F781E02D02
:101EA000428153818417950728F45093A7024093E9
:101EB000A6027CC0A285B385448155816681778165
:101EC000EA017D836C8366817781EB015B834A83C2
:101ED000AF014E5F5F4F11960D911C911297041741
:101EE000150721F412967C936E9311971386128630
:101EF0003C9131503C93A489B5891097F9F06685DF
:101F0000778500891189EB011D830C830089118974
:101F1000E8017B836A831196ED90FC901297BF01D4
:101F2000645F7F4FE616F70621F412961C930E931A
:101F30001197158A148A3C9131503C93A6893091AF
:101F400007033A1710F4A0930703DA9ED001112477
:101F5000AD51BD4F11960D90BC91A02DB583A483BA
:101F600014966D917C9115977783668314966D9185
:101F70007C911597EB015B834A8315965C934E9396
:101F8000149746894D9DD0011124AD51BD4FB387A3
:101F9000A2873C913F5F3C93E0916C02F0916D020F
:101FA0003689431708F464CF21E062CFE0916C02D8
:101FB000F0916D02E689D9E0ED9FF0011124ED5119
:101FC000FD4F8081823008F021E08091BF028111B5
:101FD0000EC00AC08091A4029091A5020196909330
:101FE000A5028093A4026AC0222309F467C08091ED
:101FF000DC02882321F081E08093BF025FC0109251
:10200000BF02A0916C02B0916D02E0916C02F09160
:102010006D022D913C918789908D82179307A8F0CE
:1020200080916C0290916D0280916C0290916D0292
:10203000279A2F9A2FEF87EA91E62150804090400F
:10204000E1F700C000001F9AF5CF2091070389E057
:1020500001C02150422F50E0849FF001859FF00D78
:102060001124ED51FD4F9081992399F3A181B28103
:1020700012960D90BC91A02DB283A183289FC00120
:1020800011248A519D4FA817B90729F412968D91F2
:102090009C919283818389E0849FF001859FF00D5C
:1020A0001124ED51FD4F0180F281E02D8681978151
:1020B00090936D0280936C0220930703A0916C02B1
:1020C000B0916D02CD91CDBFDD91DEBFFF91EF915B
:1020D000DF91CF91BF91AF919F918F917F916F9140
:1020E0005F914F913F912F911F910F91FF90EF9032
:1020F000DF90CF90BF90AF909F908F907F906F9028
:102100005F904F903F902F901F900F900CBE0F90BC
:102110000BBE0F900FBE0F9008950F920FB6F8945C
:102120000F920BB60F920CB60F921F9211242F92A2
:102130003F924F925F926F927F928F929F92AF9257
:10214000BF92CF92DF92EF92FF920F931F932F9344
:102150003F934F935F936F937F938F939F93AF932F
:10216000BF93CF93DF93EF93FF93A0916C02B09155
:102170006D020DB60D920EB60D928091DC02882391
:1021800021F081E08093BF025FC01092BF02A09156
:102190006C02B0916D02E0916C02F0916D022D9194
:1021A0003C918789908D82179307A8F080916C02EB
:1021B00090916D0280916C0290916D02279A2F9AF6
:1021C0002FEF87EA91E6215080409040E1F700C070
:1021D00000001F9AF5CF2091070389E001C021502C
:1021E000422F50E0849FF001859FF00D1124ED51A6
:1021F000FD4F9081992399F3A181B28112960D90A0
:10220000BC91A02DB283A183289FC00111248A51C3
:102210009D4FA817B90729F412968D919C9192832E
:10222000818389E0849FF001859FF00D1124ED5199
:10223000FD4F0180F281E02D8681978190936D02A0
:1022400080936C0220930703A0916C02B0916D0201
:10225000CD91CDBFDD91DEBFFF91EF91DF91CF91A9
:10226000BF91AF919F918F917F916F915F914F91AE
:102270003F912F911F910F91FF90EF90DF90CF90A2
:10228000BF90AF909F908F907F906F905F904F9096
:102290003F902F901F900F900CBE0F900BBE0F9091
:1022A0000FBE0F9008958F929F92BF92CF92DF92B0
:1022B000EF92FF920F931F93CF93DF930FB6F89493
:1022C0000F928091DC0281508093DC028091DC02CD
:1022D000882379F080E00F900FBEDF91CF911F919E
:1022E0000F91FF90EF90DF90CF90BF909F908F90D5
:1022F00008958091C002882369F3E090C602F090AF
:10230000C702F0E0E0E039E041E08091C1028111D4
:102310005EC0EF2B11F00E945B0CE090A402F090E5
:10232000A502E114F10409F47DC189E0D82ECC2482
:10233000C3940FEF1FEF8091DC02811161C1C09146
:10234000E002D091E1024E018FEF881A980A909234
:10235000E1028092E00281149104B9F48091A80214
:102360009091A9022091AA023091AB023093A90268
:102370002093A8029093AB028093AA028091E2027C
:102380008F5F8093E2020E945B0C8091A602909185
:10239000A702B12C8816990608F026C1E0916C02BC
:1023A000F0916D02E689DE9EF0011124ED51FD4FA2
:1023B0008081823010F0BB24B3948091BF028111E0
:1023C00003C0BB2009F425C1C092BF0222C1D701BE
:1023D0001696ED91FC91A489B589668577858089EB
:1023E0009189EB019D838C8380899189EC017B83AA
:1023F0006A83BF01645F7F4F11960D911C91129704
:102400000617170721F412969C938E931197158A3D
:10241000148A8C9181508C93A285B3858481958197
:1024200066817781EC017D836C8366817781EB0126
:102430009B838A83CF01029611960D911C9112976E
:102440000817190721F412967C936E93119713863F
:1024500012862C9121502C93A689209107032A17CC
:1024600010F4A09307033A9FD0011124AD51BD4F42
:1024700011960D90BC91A02DB583A48314966D91F7
:102480007C9115977783668314966D917C9115974F
:10249000EB019B838A8315969C938E931497968960
:1024A000939FD0011124AD51BD4FB387A2878C916A
:1024B0008F5F8C93A0916C02B0916D0256968C91B7
:1024C000981708F422CF4093BF021FCFE091A802D3
:1024D000F091A9020580F681E02D0680F781E02DBC
:1024E000828193818816990628F49093A70280939D
:1024F000A60254CFC285D3858481958126813781F8
:10250000DC0115963C932E93149726813781D901CF
:1025100013969C938E931297CF01029649815A810C
:102520004817590711F43A832983138612862881A4
:1025300021502883A489B5891097F9F0268537851D
:1025400040895189E9015D834C8340895189EA01C1
:102550003B832A8311966D917C9112979F01245F92
:102560003F4F6217730721F412965C934E931197B5
:10257000158A148A2C9121502C93A6892091070347
:102580002A1710F4A0930703DA9ED0011124AD514D
:10259000BD4F11960D90BC91A02DB583A4831496C8
:1025A0002D913C9115973783268314962D913C915C
:1025B0001597E9019B838A8315969C938E931497B4
:1025C00096899D9DD0011124AD51BD4FB387A2873F
:1025D0008C918F5F8C93E0916C02F0916D028689F3
:1025E000981710F0BB24B394E091A802F091A902CF
:1025F000808181116BCF1093A7020093A602CECEEB
:102600008091A4029091A50201969093A5028093D7
:10261000A402D1E0ED1AF10809F08DCE1092A502C6
:102620001092A4028091BF02882309F453CE0E9425
:102630008D1081E050CEAF92BF92CF92DF92EF9299
:10264000FF920F931F93CF93DF9300D01F921F929F
:10265000CDB7DEB78C017B011D821C8280E0680152
:1026600098E0C90ED11C0FB6F8940F92D8015A9673
:102670002C915A975B969C915B97291708F0B0C0F4
:102680005A96DC905A975C964C915C9741118DC09C
:102690008D919C91892B11F080E00AC0F801E480B3
:1026A000F580E114F10439F580E0F8011582148217
:1026B000D394D8015A96DC925A9751969C919923BB
:1026C00021F0C80141960E94A60C81110E948D1034
:1026D0000F900FBE81E00F900F900F900F900F9012
:1026E000DF91CF911F910F91FF90EF90DF90CF90EE
:1026F000BF90AF900895D70192968C919297815098
:1027000092968C93929756962C91569791969C916F
:10271000291751F28111C8CF5701B2E0AB0EB11C9D
:10272000C5010E94A80DF70181A1868B482F50E0BA
:1027300024E030E0241B350B358724879091070374
:10274000981710F48093070389E0849FD001859F38
:10275000B00D1124AD51BD4F11960D90BC91A02D1F
:10276000F701B583A48314962D913C911597378377
:1027700026831496ED91FC911597B382A28215964B
:10278000BC92AE921497D7015696EC915697E89F5B
:10279000F0011124ED51FD4F1B96FC93EE931A9717
:1027A00080818F5F808381E080CF50E0B7011296F7
:1027B0008D919C910E943019F801848D2281338182
:1027C000820F932F911D93838283248135818217F9
:1027D000930708F461CF80819181938382835CCFDA
:1027E0002C813D81232B21F40F900FBE80E073CF0D
:1027F000811109C08091E20289838091E002909169
:10280000E1029B838A830F900FBE0E94550D0FB685
:10281000F8940F92F801858D8F3F09F4158ED80139
:102820005E968C915E978F3F11F45E961C920F908E
:102830000FBEBE016C5F7F4FCE0101960E94730CEC
:1028400081112AC00FB6F8940F92F801928D838DF2
:102850000F900FBE98131AC0AC80BD8060916C02BF
:1028600070916D02645F7F4FC6010E94CC0D61E0E4
:10287000C5010E942C0EC8010E94660D0E945311D2
:10288000811102C00E948D1081E0EDCEC8010E942E
:10289000660D0E945311F8CFC8010E94660D0E9478
:1028A0005311A4CFCF93DF9300D01F921F92CDB7C7
:1028B000DEB79C018091DE029091DF020097B9F0B3
:1028C00019827B836A833D832C832091DD02BE01C4
:1028D0006F5F7F4F21112091DC020E941B130F902C
:1028E0000F900F900F900F90DF91CF91089580E09F
:1028F000F6CFEF92FF920F931F93CF93DF93E09168
:10290000B002F091B1028081811113C08091AE02BA
:102910009091AF029093B1028093B002F093AF0216
:10292000E093AE02DF91CF911F910F91FF90EF9056
:1029300008950580F681E02D00811181C681D7813F
:102940007E0182E0E80EF11CC7010E94A80DE88913
:10295000F989CE0119958A8982FFD1CF8C859D8511
:10296000800F911F0817190760F49B838A83D9870A
:10297000C887B7018091B0029091B1020E94CC0D3E
:10298000BECFB801CE010E945214B9CFCF93DF93CE
:10299000009751F0EC010E94550DCE010E9457188E
:1029A000DF91CF910C945311DF91CF910895CF9384
:1029B000DF93EC010E94550DCE010E94BB17EC0184
:1029C0000E945311209769F40E9481052FEF80E740
:1029D00092E0215080409040E1F700C000001F9A33
:1029E000F5CFCE01DF91CF9108955F926F927F92E4
:1029F0008F929F92AF92BF92CF92DF92EF92FF920F
:102A00000F931F93CF93DF93582E692E6B015A01BA
:102A1000722E132FCA010E94D7144C01892BF1F09A
:102A200088E290E00E94D714EC01892BA1F0988EE7
:102A30008F8AA50165EA70E0C4010E94391981E01E
:102A4000A81AB108EF89F88DEA0DFB1DC114D10455
:102A5000B1F4198E2AC0C4010E94C6148FEFDF9111
:102A6000CF911F910F91FF90EF90DF90CF90BF908B
:102A7000AF909F908F907F906F905F900895CE0160
:102A800049969601285F3F4FD6014D916D01DC01BB
:102A90004D93CD01A60141505109DA014C914423D7
:102AA00019F0C216D30681F718A2043008F003E02B
:102AB0000E8B09A31AA21B861A861D8A1C8AD98727
:102AC000C88784E090E0801B91099D878C87DB8B11
:102AD000CA8B84E09E012D5D3F4FD9011D928A95DE
:102AE000E9F71FA25082DF0111976C9211971C9297
:102AF00011971C92119780E88C9311971C92119753
:102B00001C9211971C9257977C9211971C93B69721
:102B1000F983E883E114F10419F0F701D183C0834C
:102B20000FB6F8940F928091C0028F5F8093C0021D
:102B300080916C0290916D02892B09F07FC0D09337
:102B40006D02C0936C028091C002813081F583EEEA
:102B500092E00E94AE0E8CEE92E00E94AE0E85EFE7
:102B600092E00E94AE0E8EEF92E00E94AE0E85E8DB
:102B700092E00E94AE0E8CE792E00E94AE0E81ECD5
:102B800092E00E94AE0E85EB92E00E94AE0E8AECBF
:102B900092E00E94AE0E85E892E09093A9028093A5
:102BA000A8028CE792E09093AB028093AA028091F6
:102BB000BE028F5F8093BE02AE89809107038A17A1
:102BC00010F4A093070329E02A9FD0011124AD51EE
:102BD000BD4F11960D90BC91A02DBD83AC83149672
:102BE0008D919C9115979F838E831496ED91FC9106
:102BF0001597CE0102969383828315969C938E93AC
:102C00001497EE89E29FF0011124ED51FD4FFB87EF
:102C1000EA8780818F5F80830F900FBE8091DD02F5
:102C2000882351F0E0916C02F0916D0296898E89B3
:102C3000981710F40E948D1081E011CF8091DD0271
:102C40008111B5CFE0916C02F0916D0296898E8969
:102C5000891708F4ACCFD0936D02C0936C02A7CF54
:102C6000EF92FF920F93CF93DF9392EAE92E92E0D7
:102C7000F92E00E030E020E040EC50E069E372E043
:102C800082E193E00E94F514813009F0BBC00FB6D9
:102C9000F8940F928091DE029091DF02892B09F067
:102CA0004FC087E992E00E94AE0E8EE892E00E944B
:102CB000AE0E87E992E09093B1028093B0028EE865
:102CC00092E09093AF028093AE0281E590E00E9483
:102CD000D714EC01009781F14F96998388838AE09D
:102CE0008B8F85E08C8F0FB6F8940F928881998135
:102CF0002B8D4C8DBC01249F600D711D11247D8393
:102D00006C831A8E9B838A832150330B429FB001C0
:102D1000439F700D1124860F971F9F838E838FEF23
:102D20008D8F8E8FCE0108960E94AE0ECE014196F9
:102D30000E94AE0E0F900FBED093DF02C093DE0252
:102D40000F900FBE8091DE029091DF02892B09F473
:102D500059C080EAE82E82E0F82E03E030E020E05F
:102D600045E550E06EE372E080E391E00E94F514E7
:102D7000813009F047C0F8942FEF3FEF3093A7025E
:102D80002093A6028093DD021092E1021092E002ED
:102D9000A89588E190EC0FB6F894A8958093600010
:102DA0000FBE90936000A0916C02B0916D02CD9126
:102DB000CDBFDD91DEBFFF91EF91DF91CF91BF914C
:102DC000AF919F918F917F916F915F914F913F91C3
:102DD0002F911F910F91FF90EF90DF90CF90BF90B8
:102DE000AF909F908F907F906F905F904F903F90AB
:102DF0002F901F900F900CBE0F900BBE0F900FBE28
:102E00000F90089580910002DF91CF910F91FF9074
:102E1000EF9008950E94BC0E1895E9EAF3E0138242
:102E2000128288EE93E0A0E0B0E084839583A683CD
:102E3000B7838BE092E09183808385EC90E0958767
:102E4000848784EC90E09787868780EC90E0918B74
:102E5000808B81EC90E0938B828B82EC90E0958B61
:102E6000848B86EC90E0978B868B118E128E138E5E
:102E7000148EE6E4F4E0168217821086118612861C
:102E800013861486158616861786108A118A128A6A
:102E9000138A148A158A0895789484B5826084BD53
:102EA00084B5816084BD85B5826085BD85B581604E
:102EB00085BDEEE6F0E0808181608083E1E8F0E0AE
:102EC0001082808182608083808181608083E0E8DD
:102ED000F0E0808181608083E1EBF0E080818460BC
:102EE0008083E0EBF0E0808181608083E1E9F0E0C5
:102EF000808182608083808181608083E0E9F0E06E
:102F0000808181608083E1EAF0E08081826080835B
:102F1000808181608083E0EAF0E08081816080834D
:102F2000E1E2F1E080818260808380818160808342
:102F3000E0E2F1E0808181608083EAE7F0E0808177
:102F400084608083808182608083808181608083CF
:102F50008081806880831092C100209105023091A9
:102F600006028FEF91E2821B930B909302028093F3
:102F700001020E94930A0F931F93CF93DF93823035
:102F8000910510F482E090E0E0918E04F0918F04BE
:102F900030E020E0B0E0A0E0309799F42115310551
:102FA00009F44AC0281B390B24303105D8F58A8131
:102FB0009B816115710589F1FB0193838283FE0179
:102FC00011C0408151810281138148175907E0F0F7
:102FD0004817590799F4109761F012960C931297BD
:102FE00013961C933296CF01DF91CF911F910F91D1
:102FF000089500938E0410938F04F4CF21153105AA
:1030000051F04217530738F0A901DB019A01BD01C5
:10301000DF01F801C1CFEF01F9CF90938F048093C6
:103020008E04CDCFFE01E20FF31F819391932250C6
:10303000310939832883D7CF20918C0430918D04B6
:10304000232B41F4209103023091040230938D042C
:1030500020938C0420910102309102022115310548
:1030600041F42DB73EB74091050250910602241B52
:10307000350BE0918C04F0918D04E217F307A0F476
:103080002E1B3F0B2817390778F0AC014E5F5F4FBE
:103090002417350748F04E0F5F1F50938D0440935F
:1030A0008C04819391939FCFF0E0E0E09CCFCF938D
:1030B000DF930097E9F0FC01329713821282A0910E
:1030C0008E04B0918F04ED0130E020E01097A1F460
:1030D00020813181820F931F20918C0430918D04C7
:1030E0002817390709F061C0F0938D04E0938C0430
:1030F000DF91CF910895EA01CE17DF07E8F54A8105
:103100005B819E0141155105B1F7E901FB83EA831B
:1031100049915991C40FD51FEC17FD0761F48081C7
:1031200091810296840F951FE9019983888382819A
:1031300093819B838A83F0E0E0E012968D919C91CD
:1031400013970097B9F52D913C911197CD010296F7
:10315000820F931F20918C0430918D04281739071A
:1031600039F6309751F510928F0410928E04B09377
:103170008D04A0938C04BCCFD383C2834081518142
:10318000840F951FC817D90761F44E5F5F4F888180
:103190009981480F591F518340838A819B81938372
:1031A00082832115310509F0B0CFF0938F04E093AD
:1031B0008E049ECFFD01DC01C0CF13821282D7CFD7
:1031C000FC0188279927E89421912032E9F32930DE
:1031D00010F02E30C8F32B3241F02D3239F46894C0
:1031E00004C00E94FE18820F911D219120532A30A5
:1031F000C0F31EF4909581959F4F08957AE0979FB4
:10320000902D879F802D910D11240895A1E21A2EF3
:10321000AA1BBB1BFD010DC0AA1FBB1FEE1FFF1F7A
:10322000A217B307E407F50720F0A21BB30BE40BCA
:10323000F50B661F771F881F991F1A9469F7609511
:103240007095809590959B01AC01BD01CF010895CB
:10325000EE0FFF1F881F8BBF0790F691E02D19948A
:10326000FB01DC0102C001900D9241505040D8F7A3
:103270000895DC0101C06D9341505040E0F708957E
:04328000F894FFCFF0
:1032840003000090048000000000008004EA03179B
:1032940004CD04480426043A0474310074320074E2
:1032A40033000D0A00564D4450455F003A323A004F
:1032B4007C005F564D4450450049444C4500546DD4
:1032C400722053766300564D4450565F317C315F13
:1032D400564D4450560A00564D4450525F003637FE
:0C32E400005363686564756C657200003F
:00000001FF
